{
  "contractName": "ERC721",
  "abi": [
    {
      "inputs": [
        {
          "internalType": "string",
          "name": "name_",
          "type": "string"
        },
        {
          "internalType": "string",
          "name": "symbol_",
          "type": "string"
        },
        {
          "internalType": "address",
          "name": "minter_",
          "type": "address"
        }
      ],
      "stateMutability": "nonpayable",
      "type": "constructor"
    },
    {
      "anonymous": false,
      "inputs": [
        {
          "indexed": true,
          "internalType": "address",
          "name": "owner",
          "type": "address"
        },
        {
          "indexed": true,
          "internalType": "address",
          "name": "approved",
          "type": "address"
        },
        {
          "indexed": true,
          "internalType": "uint256",
          "name": "tokenId",
          "type": "uint256"
        }
      ],
      "name": "Approval",
      "type": "event"
    },
    {
      "anonymous": false,
      "inputs": [
        {
          "indexed": true,
          "internalType": "address",
          "name": "owner",
          "type": "address"
        },
        {
          "indexed": true,
          "internalType": "address",
          "name": "operator",
          "type": "address"
        },
        {
          "indexed": false,
          "internalType": "bool",
          "name": "approved",
          "type": "bool"
        }
      ],
      "name": "ApprovalForAll",
      "type": "event"
    },
    {
      "anonymous": false,
      "inputs": [
        {
          "indexed": false,
          "internalType": "address",
          "name": "_m",
          "type": "address"
        },
        {
          "indexed": false,
          "internalType": "bool",
          "name": "_o",
          "type": "bool"
        }
      ],
      "name": "Minter",
      "type": "event"
    },
    {
      "anonymous": false,
      "inputs": [
        {
          "indexed": true,
          "internalType": "address",
          "name": "previousOwner",
          "type": "address"
        },
        {
          "indexed": true,
          "internalType": "address",
          "name": "newOwner",
          "type": "address"
        }
      ],
      "name": "OwnershipTransferred",
      "type": "event"
    },
    {
      "anonymous": false,
      "inputs": [
        {
          "indexed": false,
          "internalType": "uint256",
          "name": "_id",
          "type": "uint256"
        },
        {
          "indexed": false,
          "internalType": "string",
          "name": "_ipfs",
          "type": "string"
        }
      ],
      "name": "SetURI",
      "type": "event"
    },
    {
      "anonymous": false,
      "inputs": [
        {
          "indexed": true,
          "internalType": "address",
          "name": "from",
          "type": "address"
        },
        {
          "indexed": true,
          "internalType": "address",
          "name": "to",
          "type": "address"
        },
        {
          "indexed": true,
          "internalType": "uint256",
          "name": "tokenId",
          "type": "uint256"
        }
      ],
      "name": "Transfer",
      "type": "event"
    },
    {
      "inputs": [],
      "name": "baseURI",
      "outputs": [
        {
          "internalType": "string",
          "name": "",
          "type": "string"
        }
      ],
      "stateMutability": "view",
      "type": "function"
    },
    {
      "inputs": [
        {
          "internalType": "uint256",
          "name": "",
          "type": "uint256"
        }
      ],
      "name": "lockUri",
      "outputs": [
        {
          "internalType": "string",
          "name": "",
          "type": "string"
        }
      ],
      "stateMutability": "view",
      "type": "function"
    },
    {
      "inputs": [
        {
          "internalType": "address",
          "name": "",
          "type": "address"
        }
      ],
      "name": "minters",
      "outputs": [
        {
          "internalType": "bool",
          "name": "",
          "type": "bool"
        }
      ],
      "stateMutability": "view",
      "type": "function"
    },
    {
      "inputs": [],
      "name": "owner",
      "outputs": [
        {
          "internalType": "address",
          "name": "",
          "type": "address"
        }
      ],
      "stateMutability": "view",
      "type": "function"
    },
    {
      "inputs": [],
      "name": "renounceOwnership",
      "outputs": [],
      "stateMutability": "nonpayable",
      "type": "function"
    },
    {
      "inputs": [
        {
          "internalType": "address",
          "name": "newOwner",
          "type": "address"
        }
      ],
      "name": "transferOwnership",
      "outputs": [],
      "stateMutability": "nonpayable",
      "type": "function"
    },
    {
      "inputs": [
        {
          "internalType": "bytes4",
          "name": "interfaceId",
          "type": "bytes4"
        }
      ],
      "name": "supportsInterface",
      "outputs": [
        {
          "internalType": "bool",
          "name": "",
          "type": "bool"
        }
      ],
      "stateMutability": "view",
      "type": "function"
    },
    {
      "inputs": [
        {
          "internalType": "address",
          "name": "owner",
          "type": "address"
        }
      ],
      "name": "balanceOf",
      "outputs": [
        {
          "internalType": "uint256",
          "name": "",
          "type": "uint256"
        }
      ],
      "stateMutability": "view",
      "type": "function"
    },
    {
      "inputs": [
        {
          "internalType": "uint256",
          "name": "tokenId",
          "type": "uint256"
        }
      ],
      "name": "ownerOf",
      "outputs": [
        {
          "internalType": "address",
          "name": "",
          "type": "address"
        }
      ],
      "stateMutability": "view",
      "type": "function"
    },
    {
      "inputs": [],
      "name": "name",
      "outputs": [
        {
          "internalType": "string",
          "name": "",
          "type": "string"
        }
      ],
      "stateMutability": "view",
      "type": "function"
    },
    {
      "inputs": [],
      "name": "symbol",
      "outputs": [
        {
          "internalType": "string",
          "name": "",
          "type": "string"
        }
      ],
      "stateMutability": "view",
      "type": "function"
    },
    {
      "inputs": [
        {
          "internalType": "string",
          "name": "_uri",
          "type": "string"
        }
      ],
      "name": "setBase",
      "outputs": [],
      "stateMutability": "nonpayable",
      "type": "function"
    },
    {
      "inputs": [
        {
          "internalType": "uint256",
          "name": "_id",
          "type": "uint256"
        }
      ],
      "name": "exist",
      "outputs": [
        {
          "internalType": "bool",
          "name": "",
          "type": "bool"
        }
      ],
      "stateMutability": "view",
      "type": "function"
    },
    {
      "inputs": [
        {
          "internalType": "address",
          "name": "_minter",
          "type": "address"
        },
        {
          "internalType": "bool",
          "name": "_open",
          "type": "bool"
        }
      ],
      "name": "setMinter",
      "outputs": [],
      "stateMutability": "nonpayable",
      "type": "function"
    },
    {
      "inputs": [
        {
          "internalType": "uint256",
          "name": "_id",
          "type": "uint256"
        },
        {
          "internalType": "string",
          "name": "_ipfs",
          "type": "string"
        }
      ],
      "name": "setURI",
      "outputs": [],
      "stateMutability": "nonpayable",
      "type": "function"
    },
    {
      "inputs": [
        {
          "internalType": "string",
          "name": "_a",
          "type": "string"
        },
        {
          "internalType": "string",
          "name": "_b",
          "type": "string"
        }
      ],
      "name": "strConcat",
      "outputs": [
        {
          "internalType": "string",
          "name": "",
          "type": "string"
        }
      ],
      "stateMutability": "pure",
      "type": "function"
    },
    {
      "inputs": [
        {
          "internalType": "uint256",
          "name": "tokenId",
          "type": "uint256"
        }
      ],
      "name": "tokenURI",
      "outputs": [
        {
          "internalType": "string",
          "name": "",
          "type": "string"
        }
      ],
      "stateMutability": "view",
      "type": "function"
    },
    {
      "inputs": [
        {
          "internalType": "address",
          "name": "to",
          "type": "address"
        },
        {
          "internalType": "uint256",
          "name": "tokenId",
          "type": "uint256"
        }
      ],
      "name": "approve",
      "outputs": [],
      "stateMutability": "nonpayable",
      "type": "function"
    },
    {
      "inputs": [
        {
          "internalType": "uint256",
          "name": "tokenId",
          "type": "uint256"
        }
      ],
      "name": "getApproved",
      "outputs": [
        {
          "internalType": "address",
          "name": "",
          "type": "address"
        }
      ],
      "stateMutability": "view",
      "type": "function"
    },
    {
      "inputs": [
        {
          "internalType": "address",
          "name": "operator",
          "type": "address"
        },
        {
          "internalType": "bool",
          "name": "approved",
          "type": "bool"
        }
      ],
      "name": "setApprovalForAll",
      "outputs": [],
      "stateMutability": "nonpayable",
      "type": "function"
    },
    {
      "inputs": [
        {
          "internalType": "address",
          "name": "owner",
          "type": "address"
        },
        {
          "internalType": "address",
          "name": "operator",
          "type": "address"
        }
      ],
      "name": "isApprovedForAll",
      "outputs": [
        {
          "internalType": "bool",
          "name": "",
          "type": "bool"
        }
      ],
      "stateMutability": "view",
      "type": "function"
    },
    {
      "inputs": [
        {
          "internalType": "address",
          "name": "from",
          "type": "address"
        },
        {
          "internalType": "address",
          "name": "to",
          "type": "address"
        },
        {
          "internalType": "uint256",
          "name": "tokenId",
          "type": "uint256"
        }
      ],
      "name": "transferFrom",
      "outputs": [],
      "stateMutability": "nonpayable",
      "type": "function"
    },
    {
      "inputs": [
        {
          "internalType": "address",
          "name": "from",
          "type": "address"
        },
        {
          "internalType": "address",
          "name": "to",
          "type": "address"
        },
        {
          "internalType": "uint256",
          "name": "tokenId",
          "type": "uint256"
        }
      ],
      "name": "safeTransferFrom",
      "outputs": [],
      "stateMutability": "nonpayable",
      "type": "function"
    },
    {
      "inputs": [
        {
          "internalType": "address",
          "name": "from",
          "type": "address"
        },
        {
          "internalType": "address",
          "name": "to",
          "type": "address"
        },
        {
          "internalType": "uint256",
          "name": "tokenId",
          "type": "uint256"
        },
        {
          "internalType": "bytes",
          "name": "_data",
          "type": "bytes"
        }
      ],
      "name": "safeTransferFrom",
      "outputs": [],
      "stateMutability": "nonpayable",
      "type": "function"
    },
    {
      "inputs": [
        {
          "internalType": "address",
          "name": "from",
          "type": "address"
        },
        {
          "internalType": "address",
          "name": "to",
          "type": "address"
        },
        {
          "internalType": "uint256",
          "name": "_tokenID",
          "type": "uint256"
        },
        {
          "internalType": "bytes",
          "name": "data",
          "type": "bytes"
        }
      ],
      "name": "mint",
      "outputs": [
        {
          "internalType": "uint256",
          "name": "",
          "type": "uint256"
        }
      ],
      "stateMutability": "nonpayable",
      "type": "function"
    },
    {
      "inputs": [
        {
          "internalType": "address[]",
          "name": "from",
          "type": "address[]"
        },
        {
          "internalType": "address[]",
          "name": "to",
          "type": "address[]"
        },
        {
          "internalType": "uint256[]",
          "name": "_tokenID",
          "type": "uint256[]"
        },
        {
          "internalType": "bytes[]",
          "name": "data",
          "type": "bytes[]"
        }
      ],
      "name": "BatchMint",
      "outputs": [],
      "stateMutability": "nonpayable",
      "type": "function"
    }
  ],
  "bytecode": "0x60806040523480156200001157600080fd5b5060405162004186380380620041868339818101604052810190620000379190620003f8565b620000576200004b620000a560201b60201c565b620000ad60201b60201c565b82600190805190602001906200006f929190620002bf565b50816002908051906020019062000088929190620002bf565b506200009c8160016200017160201b60201c565b505050620006cf565b600033905090565b60008060009054906101000a900473ffffffffffffffffffffffffffffffffffffffff169050816000806101000a81548173ffffffffffffffffffffffffffffffffffffffff021916908373ffffffffffffffffffffffffffffffffffffffff1602179055508173ffffffffffffffffffffffffffffffffffffffff168173ffffffffffffffffffffffffffffffffffffffff167f8be0079c531659141344cd1fd0a4f28419497f9722a3daafe3b4186f6b6457e060405160405180910390a35050565b62000181620000a560201b60201c565b73ffffffffffffffffffffffffffffffffffffffff16620001a76200029660201b60201c565b73ffffffffffffffffffffffffffffffffffffffff161462000200576040517f08c379a0000000000000000000000000000000000000000000000000000000008152600401620001f79062000511565b60405180910390fd5b80600960008473ffffffffffffffffffffffffffffffffffffffff1673ffffffffffffffffffffffffffffffffffffffff16815260200190815260200160002060006101000a81548160ff0219169083151502179055507fff452b3b9159b024a9098f0058c63eccd90d36b3584608202800d662f962bb6082826040516200028a929190620004e4565b60405180910390a15050565b60008060009054906101000a900473ffffffffffffffffffffffffffffffffffffffff16905090565b828054620002cd9062000621565b90600052602060002090601f016020900481019282620002f157600085556200033d565b82601f106200030c57805160ff19168380011785556200033d565b828001600101855582156200033d579182015b828111156200033c5782518255916020019190600101906200031f565b5b5090506200034c919062000350565b5090565b5b808211156200036b57600081600090555060010162000351565b5090565b600062000386620003808462000567565b62000533565b9050828152602081018484840111156200039f57600080fd5b620003ac848285620005eb565b509392505050565b600081519050620003c581620006b5565b92915050565b600082601f830112620003dd57600080fd5b8151620003ef8482602086016200036f565b91505092915050565b6000806000606084860312156200040e57600080fd5b600084015167ffffffffffffffff8111156200042957600080fd5b6200043786828701620003cb565b935050602084015167ffffffffffffffff8111156200045557600080fd5b6200046386828701620003cb565b92505060406200047686828701620003b4565b9150509250925092565b6200048b81620005ab565b82525050565b6200049c81620005bf565b82525050565b6000620004b16020836200059a565b91507f4f776e61626c653a2063616c6c6572206973206e6f7420746865206f776e65726000830152602082019050919050565b6000604082019050620004fb600083018562000480565b6200050a602083018462000491565b9392505050565b600060208201905081810360008301526200052c81620004a2565b9050919050565b6000604051905081810181811067ffffffffffffffff821117156200055d576200055c62000686565b5b8060405250919050565b600067ffffffffffffffff82111562000585576200058462000686565b5b601f19601f8301169050602081019050919050565b600082825260208201905092915050565b6000620005b882620005cb565b9050919050565b60008115159050919050565b600073ffffffffffffffffffffffffffffffffffffffff82169050919050565b60005b838110156200060b578082015181840152602081019050620005ee565b838111156200061b576000848401525b50505050565b600060028204905060018216806200063a57607f821691505b6020821081141562000651576200065062000657565b5b50919050565b7f4e487b7100000000000000000000000000000000000000000000000000000000600052602260045260246000fd5b7f4e487b7100000000000000000000000000000000000000000000000000000000600052604160045260246000fd5b620006c081620005ab565b8114620006cc57600080fd5b50565b613aa780620006df6000396000f3fe608060405234801561001057600080fd5b506004361061018e5760003560e01c8063715018a6116100de578063c87b56dd11610097578063f2fde38b11610071578063f2fde38b14610491578063f46eccc4146104ad578063f74bee28146104dd578063ff74927b1461050d5761018e565b8063c87b56dd14610415578063cf456ae714610445578063e985e9c5146104615761018e565b8063715018a61461037b578063862440e2146103855780638da5cb5b146103a157806395d89b41146103bf578063a22cb465146103dd578063b88d4fde146103f95761018e565b80634ebbc92a1161014b5780636352211e116101255780636352211e146102e1578063664aa26b146103115780636c0360eb1461032d57806370a082311461034b5761018e565b80634ebbc92a146102655780636010a5e7146102955780636136f7a1146102c55761018e565b806301ffc9a71461019357806306fdde03146101c3578063081812fc146101e1578063095ea7b31461021157806323b872dd1461022d57806342842e0e14610249575b600080fd5b6101ad60048036038101906101a89190612a6f565b61053d565b6040516101ba9190613316565b60405180910390f35b6101cb61061f565b6040516101d89190613331565b60405180910390f35b6101fb60048036038101906101f69190612b6e565b6106b1565b6040516102089190613286565b60405180910390f35b61022b60048036038101906102269190612970565b610736565b005b6102476004803603810190610242919061286a565b61084e565b005b610263600480360381019061025e919061286a565b6108ae565b005b61027f600480360381019061027a9190612b6e565b6108ce565b60405161028c9190613316565b60405180910390f35b6102af60048036038101906102aa91906128b9565b6108f8565b6040516102bc9190613593565b60405180910390f35b6102df60048036038101906102da91906129ac565b61099c565b005b6102fb60048036038101906102f69190612b6e565b610b77565b6040516103089190613286565b60405180910390f35b61032b60048036038101906103269190612ac1565b610bb9565b005b610335610c4f565b6040516103429190613331565b60405180910390f35b61036560048036038101906103609190612805565b610cdd565b6040516103729190613593565b60405180910390f35b610383610d95565b005b61039f600480360381019061039a9190612b97565b610e1d565b005b6103a9610f23565b6040516103b69190613286565b60405180910390f35b6103c7610f4c565b6040516103d49190613331565b60405180910390f35b6103f760048036038101906103f29190612934565b610fde565b005b610413600480360381019061040e91906128b9565b610ff4565b005b61042f600480360381019061042a9190612b6e565b611056565b60405161043c9190613331565b60405180910390f35b61045f600480360381019061045a9190612934565b6111c7565b005b61047b6004803603810190610476919061282e565b6112d7565b6040516104889190613316565b60405180910390f35b6104ab60048036038101906104a69190612805565b61136b565b005b6104c760048036038101906104c29190612805565b611463565b6040516104d49190613316565b60405180910390f35b6104f760048036038101906104f29190612b6e565b611483565b6040516105049190613331565b60405180910390f35b61052760048036038101906105229190612b02565b611523565b6040516105349190613331565b60405180910390f35b60007f80ac58cd000000000000000000000000000000000000000000000000000000007bffffffffffffffffffffffffffffffffffffffffffffffffffffffff1916827bffffffffffffffffffffffffffffffffffffffffffffffffffffffff1916148061060857507f5b5e139f000000000000000000000000000000000000000000000000000000007bffffffffffffffffffffffffffffffffffffffffffffffffffffffff1916827bffffffffffffffffffffffffffffffffffffffffffffffffffffffff1916145b80610618575061061782611778565b5b9050919050565b60606001805461062e9061389c565b80601f016020809104026020016040519081016040528092919081815260200182805461065a9061389c565b80156106a75780601f1061067c576101008083540402835291602001916106a7565b820191906000526020600020905b81548152906001019060200180831161068a57829003601f168201915b5050505050905090565b60006106bc826117e2565b6106fb576040517f08c379a00000000000000000000000000000000000000000000000000000000081526004016106f2906134b3565b60405180910390fd5b6005600083815260200190815260200160002060009054906101000a900473ffffffffffffffffffffffffffffffffffffffff169050919050565b600061074182610b77565b90508073ffffffffffffffffffffffffffffffffffffffff168373ffffffffffffffffffffffffffffffffffffffff1614156107b2576040517f08c379a00000000000000000000000000000000000000000000000000000000081526004016107a990613513565b60405180910390fd5b8073ffffffffffffffffffffffffffffffffffffffff166107d161184e565b73ffffffffffffffffffffffffffffffffffffffff16148061080057506107ff816107fa61184e565b6112d7565b5b61083f576040517f08c379a000000000000000000000000000000000000000000000000000000000815260040161083690613453565b60405180910390fd5b6108498383611856565b505050565b61085f61085961184e565b8261190f565b61089e576040517f08c379a000000000000000000000000000000000000000000000000000000000815260040161089590613533565b60405180910390fd5b6108a98383836119ed565b505050565b6108c983838360405180602001604052806000815250610ff4565b505050565b6000600a600083815260200190815260200160002060009054906101000a900460ff169050919050565b6000600960003373ffffffffffffffffffffffffffffffffffffffff1673ffffffffffffffffffffffffffffffffffffffff16815260200190815260200160002060009054906101000a900460ff16610986576040517f08c379a000000000000000000000000000000000000000000000000000000000815260040161097d90613573565b60405180910390fd5b61099285858585611c49565b9050949350505050565b600960003373ffffffffffffffffffffffffffffffffffffffff1673ffffffffffffffffffffffffffffffffffffffff16815260200190815260200160002060009054906101000a900460ff16610a28576040517f08c379a0000000000000000000000000000000000000000000000000000000008152600401610a1f90613553565b60405180910390fd5b8251845114610a3657600080fd5b8151835114610a4457600080fd5b60005b8451811015610b7057610b5c858281518110610a8c577f4e487b7100000000000000000000000000000000000000000000000000000000600052603260045260246000fd5b6020026020010151858381518110610acd577f4e487b7100000000000000000000000000000000000000000000000000000000600052603260045260246000fd5b6020026020010151858481518110610b0e577f4e487b7100000000000000000000000000000000000000000000000000000000600052603260045260246000fd5b6020026020010151858581518110610b4f577f4e487b7100000000000000000000000000000000000000000000000000000000600052603260045260246000fd5b6020026020010151611c49565b508080610b68906138ce565b915050610a47565b5050505050565b6000806003600084815260200190815260200160002060009054906101000a900473ffffffffffffffffffffffffffffffffffffffff16905080915050919050565b610bc161184e565b73ffffffffffffffffffffffffffffffffffffffff16610bdf610f23565b73ffffffffffffffffffffffffffffffffffffffff1614610c35576040517f08c379a0000000000000000000000000000000000000000000000000000000008152600401610c2c906134d3565b60405180910390fd5b8060079080519060200190610c4b929190612476565b5050565b60078054610c5c9061389c565b80601f0160208091040260200160405190810160405280929190818152602001828054610c889061389c565b8015610cd55780601f10610caa57610100808354040283529160200191610cd5565b820191906000526020600020905b815481529060010190602001808311610cb857829003601f168201915b505050505081565b60008073ffffffffffffffffffffffffffffffffffffffff168273ffffffffffffffffffffffffffffffffffffffff161415610d4e576040517f08c379a0000000000000000000000000000000000000000000000000000000008152600401610d4590613473565b60405180910390fd5b600460008373ffffffffffffffffffffffffffffffffffffffff1673ffffffffffffffffffffffffffffffffffffffff168152602001908152602001600020549050919050565b610d9d61184e565b73ffffffffffffffffffffffffffffffffffffffff16610dbb610f23565b73ffffffffffffffffffffffffffffffffffffffff1614610e11576040517f08c379a0000000000000000000000000000000000000000000000000000000008152600401610e08906134d3565b60405180910390fd5b610e1b6000611e8d565b565b3373ffffffffffffffffffffffffffffffffffffffff16610e3d83610b77565b73ffffffffffffffffffffffffffffffffffffffff16148015610e7f57506001600860008481526020019081526020016000208054610e7b9061389c565b9050105b610ebe576040517f08c379a0000000000000000000000000000000000000000000000000000000008152600401610eb590613353565b60405180910390fd5b80600860008481526020019081526020016000209080519060200190610ee5929190612476565b507fee1bb82f380189104b74a7647d26f2f35679780e816626ffcaec7cafb7288e468282604051610f179291906135ae565b60405180910390a15050565b60008060009054906101000a900473ffffffffffffffffffffffffffffffffffffffff16905090565b606060028054610f5b9061389c565b80601f0160208091040260200160405190810160405280929190818152602001828054610f879061389c565b8015610fd45780601f10610fa957610100808354040283529160200191610fd4565b820191906000526020600020905b815481529060010190602001808311610fb757829003601f168201915b5050505050905090565b610ff0610fe961184e565b8383611f51565b5050565b611005610fff61184e565b8361190f565b611044576040517f08c379a000000000000000000000000000000000000000000000000000000000815260040161103b90613533565b60405180910390fd5b611050848484846120be565b50505050565b606060006008600084815260200190815260200160002080546110789061389c565b905011156111235760086000838152602001908152602001600020805461109e9061389c565b80601f01602080910402602001604051908101604052809291908181526020018280546110ca9061389c565b80156111175780601f106110ec57610100808354040283529160200191611117565b820191906000526020600020905b8154815290600101906020018083116110fa57829003601f168201915b505050505090506111c2565b6111bf600780546111339061389c565b80601f016020809104026020016040519081016040528092919081815260200182805461115f9061389c565b80156111ac5780601f10611181576101008083540402835291602001916111ac565b820191906000526020600020905b81548152906001019060200180831161118f57829003601f168201915b50505050506111ba8461211a565b611523565b90505b919050565b6111cf61184e565b73ffffffffffffffffffffffffffffffffffffffff166111ed610f23565b73ffffffffffffffffffffffffffffffffffffffff1614611243576040517f08c379a000000000000000000000000000000000000000000000000000000000815260040161123a906134d3565b60405180910390fd5b80600960008473ffffffffffffffffffffffffffffffffffffffff1673ffffffffffffffffffffffffffffffffffffffff16815260200190815260200160002060006101000a81548160ff0219169083151502179055507fff452b3b9159b024a9098f0058c63eccd90d36b3584608202800d662f962bb6082826040516112cb9291906132ed565b60405180910390a15050565b6000600660008473ffffffffffffffffffffffffffffffffffffffff1673ffffffffffffffffffffffffffffffffffffffff16815260200190815260200160002060008373ffffffffffffffffffffffffffffffffffffffff1673ffffffffffffffffffffffffffffffffffffffff16815260200190815260200160002060009054906101000a900460ff16905092915050565b61137361184e565b73ffffffffffffffffffffffffffffffffffffffff16611391610f23565b73ffffffffffffffffffffffffffffffffffffffff16146113e7576040517f08c379a00000000000000000000000000000000000000000000000000000000081526004016113de906134d3565b60405180910390fd5b600073ffffffffffffffffffffffffffffffffffffffff168173ffffffffffffffffffffffffffffffffffffffff161415611457576040517f08c379a000000000000000000000000000000000000000000000000000000000815260040161144e906133b3565b60405180910390fd5b61146081611e8d565b50565b60096020528060005260406000206000915054906101000a900460ff1681565b600860205280600052604060002060009150905080546114a29061389c565b80601f01602080910402602001604051908101604052809291908181526020018280546114ce9061389c565b801561151b5780601f106114f05761010080835404028352916020019161151b565b820191906000526020600020905b8154815290600101906020018083116114fe57829003601f168201915b505050505081565b60606000839050600083905060008151835161153f919061372b565b67ffffffffffffffff81111561157e577f4e487b7100000000000000000000000000000000000000000000000000000000600052604160045260246000fd5b6040519080825280601f01601f1916602001820160405280156115b05781602001600182028036833780820191505090505b50905060008190506000805b8551811015611690578581815181106115fe577f4e487b7100000000000000000000000000000000000000000000000000000000600052603260045260246000fd5b602001015160f81c60f81b838380611615906138ce565b94508151811061164e577f4e487b7100000000000000000000000000000000000000000000000000000000600052603260045260246000fd5b60200101907effffffffffffffffffffffffffffffffffffffffffffffffffffffffffffff1916908160001a9053508080611688906138ce565b9150506115bc565b600090505b8451811015611769578481815181106116d7577f4e487b7100000000000000000000000000000000000000000000000000000000600052603260045260246000fd5b602001015160f81c60f81b8383806116ee906138ce565b945081518110611727577f4e487b7100000000000000000000000000000000000000000000000000000000600052603260045260246000fd5b60200101907effffffffffffffffffffffffffffffffffffffffffffffffffffffffffffff1916908160001a9053508080611761906138ce565b915050611695565b83965050505050505092915050565b60007f01ffc9a7000000000000000000000000000000000000000000000000000000007bffffffffffffffffffffffffffffffffffffffffffffffffffffffff1916827bffffffffffffffffffffffffffffffffffffffffffffffffffffffff1916149050919050565b60008073ffffffffffffffffffffffffffffffffffffffff166003600084815260200190815260200160002060009054906101000a900473ffffffffffffffffffffffffffffffffffffffff1673ffffffffffffffffffffffffffffffffffffffff1614159050919050565b600033905090565b816005600083815260200190815260200160002060006101000a81548173ffffffffffffffffffffffffffffffffffffffff021916908373ffffffffffffffffffffffffffffffffffffffff160217905550808273ffffffffffffffffffffffffffffffffffffffff166118c983610b77565b73ffffffffffffffffffffffffffffffffffffffff167f8c5be1e5ebec7d5bd14f71427d1e84f3dd0314c0f7b2291e5b200ac8c7c3b92560405160405180910390a45050565b600061191a826117e2565b611959576040517f08c379a000000000000000000000000000000000000000000000000000000000815260040161195090613433565b60405180910390fd5b600061196483610b77565b90508073ffffffffffffffffffffffffffffffffffffffff168473ffffffffffffffffffffffffffffffffffffffff1614806119d357508373ffffffffffffffffffffffffffffffffffffffff166119bb846106b1565b73ffffffffffffffffffffffffffffffffffffffff16145b806119e457506119e381856112d7565b5b91505092915050565b8273ffffffffffffffffffffffffffffffffffffffff16611a0d82610b77565b73ffffffffffffffffffffffffffffffffffffffff1614611a63576040517f08c379a0000000000000000000000000000000000000000000000000000000008152600401611a5a906134f3565b60405180910390fd5b600073ffffffffffffffffffffffffffffffffffffffff168273ffffffffffffffffffffffffffffffffffffffff161415611ad3576040517f08c379a0000000000000000000000000000000000000000000000000000000008152600401611aca906133f3565b60405180910390fd5b611ade8383836122c7565b611ae9600082611856565b6001600460008573ffffffffffffffffffffffffffffffffffffffff1673ffffffffffffffffffffffffffffffffffffffff1681526020019081526020016000206000828254611b3991906137b2565b925050819055506001600460008473ffffffffffffffffffffffffffffffffffffffff1673ffffffffffffffffffffffffffffffffffffffff1681526020019081526020016000206000828254611b90919061372b565b92505081905550816003600083815260200190815260200160002060006101000a81548173ffffffffffffffffffffffffffffffffffffffff021916908373ffffffffffffffffffffffffffffffffffffffff160217905550808273ffffffffffffffffffffffffffffffffffffffff168473ffffffffffffffffffffffffffffffffffffffff167fddf252ad1be2c89b69c2b068fc378daa952ba7f163c4a11628f55a4df523b3ef60405160405180910390a4505050565b60008073ffffffffffffffffffffffffffffffffffffffff168473ffffffffffffffffffffffffffffffffffffffff161415611cba576040517f08c379a0000000000000000000000000000000000000000000000000000000008152600401611cb190613493565b60405180910390fd5b611cc3836117e2565b15611d03576040517f08c379a0000000000000000000000000000000000000000000000000000000008152600401611cfa906133d3565b60405180910390fd5b6000825111611d47576040517f08c379a0000000000000000000000000000000000000000000000000000000008152600401611d3e90613373565b60405180910390fd5b611d528585856122c7565b6001600460008673ffffffffffffffffffffffffffffffffffffffff1673ffffffffffffffffffffffffffffffffffffffff1681526020019081526020016000206000828254611da2919061372b565b92505081905550836003600085815260200190815260200160002060006101000a81548173ffffffffffffffffffffffffffffffffffffffff021916908373ffffffffffffffffffffffffffffffffffffffff1602179055506001600a600085815260200190815260200160002060006101000a81548160ff021916908315150217905550828473ffffffffffffffffffffffffffffffffffffffff168673ffffffffffffffffffffffffffffffffffffffff167fddf252ad1be2c89b69c2b068fc378daa952ba7f163c4a11628f55a4df523b3ef60405160405180910390a4829050949350505050565b60008060009054906101000a900473ffffffffffffffffffffffffffffffffffffffff169050816000806101000a81548173ffffffffffffffffffffffffffffffffffffffff021916908373ffffffffffffffffffffffffffffffffffffffff1602179055508173ffffffffffffffffffffffffffffffffffffffff168173ffffffffffffffffffffffffffffffffffffffff167f8be0079c531659141344cd1fd0a4f28419497f9722a3daafe3b4186f6b6457e060405160405180910390a35050565b8173ffffffffffffffffffffffffffffffffffffffff168373ffffffffffffffffffffffffffffffffffffffff161415611fc0576040517f08c379a0000000000000000000000000000000000000000000000000000000008152600401611fb790613413565b60405180910390fd5b80600660008573ffffffffffffffffffffffffffffffffffffffff1673ffffffffffffffffffffffffffffffffffffffff16815260200190815260200160002060008473ffffffffffffffffffffffffffffffffffffffff1673ffffffffffffffffffffffffffffffffffffffff16815260200190815260200160002060006101000a81548160ff0219169083151502179055508173ffffffffffffffffffffffffffffffffffffffff168373ffffffffffffffffffffffffffffffffffffffff167f17307eab39ab6107e8899845ad3d59bd9653f200f220920489ca2b5937696c31836040516120b19190613316565b60405180910390a3505050565b6120c98484846119ed565b6120d5848484846122cc565b612114576040517f08c379a000000000000000000000000000000000000000000000000000000000815260040161210b90613393565b60405180910390fd5b50505050565b60606000821415612162576040518060400160405280600181526020017f300000000000000000000000000000000000000000000000000000000000000081525090506122c2565b600082905060005b6000821461219457808061217d906138ce565b915050600a8261218d9190613781565b915061216a565b60008167ffffffffffffffff8111156121d6577f4e487b7100000000000000000000000000000000000000000000000000000000600052604160045260246000fd5b6040519080825280601f01601f1916602001820160405280156122085781602001600182028036833780820191505090505b5090505b600085146122bb5760018261222191906137b2565b9150600a856122309190613917565b603061223c919061372b565b60f81b818381518110612278577f4e487b7100000000000000000000000000000000000000000000000000000000600052603260045260246000fd5b60200101907effffffffffffffffffffffffffffffffffffffffffffffffffffffffffffff1916908160001a905350600a856122b49190613781565b945061220c565b8093505050505b919050565b505050565b60006122ed8473ffffffffffffffffffffffffffffffffffffffff16612463565b15612456578373ffffffffffffffffffffffffffffffffffffffff1663150b7a0261231661184e565b8786866040518563ffffffff1660e01b815260040161233894939291906132a1565b602060405180830381600087803b15801561235257600080fd5b505af192505050801561238357506040513d601f19601f820116820180604052508101906123809190612a98565b60015b612406573d80600081146123b3576040519150601f19603f3d011682016040523d82523d6000602084013e6123b8565b606091505b506000815114156123fe576040517f08c379a00000000000000000000000000000000000000000000000000000000081526004016123f590613393565b60405180910390fd5b805181602001fd5b63150b7a0260e01b7bffffffffffffffffffffffffffffffffffffffffffffffffffffffff1916817bffffffffffffffffffffffffffffffffffffffffffffffffffffffff19161491505061245b565b600190505b949350505050565b600080823b905060008111915050919050565b8280546124829061389c565b90600052602060002090601f0160209004810192826124a457600085556124eb565b82601f106124bd57805160ff19168380011785556124eb565b828001600101855582156124eb579182015b828111156124ea5782518255916020019190600101906124cf565b5b5090506124f891906124fc565b5090565b5b808211156125155760008160009055506001016124fd565b5090565b600061252c6125278461360f565b6135de565b9050808382526020820190508285602086028201111561254b57600080fd5b60005b8581101561257b578161256188826126ca565b84526020840193506020830192505060018101905061254e565b5050509392505050565b60006125986125938461363b565b6135de565b9050808382526020820190508260005b858110156125d857813585016125be888261279c565b8452602084019350602083019250506001810190506125a8565b5050509392505050565b60006125f56125f084613667565b6135de565b9050808382526020820190508285602086028201111561261457600080fd5b60005b85811015612644578161262a88826127f0565b845260208401935060208301925050600181019050612617565b5050509392505050565b600061266161265c84613693565b6135de565b90508281526020810184848401111561267957600080fd5b61268484828561385a565b509392505050565b600061269f61269a846136c3565b6135de565b9050828152602081018484840111156126b757600080fd5b6126c284828561385a565b509392505050565b6000813590506126d981613a15565b92915050565b600082601f8301126126f057600080fd5b8135612700848260208601612519565b91505092915050565b600082601f83011261271a57600080fd5b813561272a848260208601612585565b91505092915050565b600082601f83011261274457600080fd5b81356127548482602086016125e2565b91505092915050565b60008135905061276c81613a2c565b92915050565b60008135905061278181613a43565b92915050565b60008151905061279681613a43565b92915050565b600082601f8301126127ad57600080fd5b81356127bd84826020860161264e565b91505092915050565b600082601f8301126127d757600080fd5b81356127e784826020860161268c565b91505092915050565b6000813590506127ff81613a5a565b92915050565b60006020828403121561281757600080fd5b6000612825848285016126ca565b91505092915050565b6000806040838503121561284157600080fd5b600061284f858286016126ca565b9250506020612860858286016126ca565b9150509250929050565b60008060006060848603121561287f57600080fd5b600061288d868287016126ca565b935050602061289e868287016126ca565b92505060406128af868287016127f0565b9150509250925092565b600080600080608085870312156128cf57600080fd5b60006128dd878288016126ca565b94505060206128ee878288016126ca565b93505060406128ff878288016127f0565b925050606085013567ffffffffffffffff81111561291c57600080fd5b6129288782880161279c565b91505092959194509250565b6000806040838503121561294757600080fd5b6000612955858286016126ca565b92505060206129668582860161275d565b9150509250929050565b6000806040838503121561298357600080fd5b6000612991858286016126ca565b92505060206129a2858286016127f0565b9150509250929050565b600080600080608085870312156129c257600080fd5b600085013567ffffffffffffffff8111156129dc57600080fd5b6129e8878288016126df565b945050602085013567ffffffffffffffff811115612a0557600080fd5b612a11878288016126df565b935050604085013567ffffffffffffffff811115612a2e57600080fd5b612a3a87828801612733565b925050606085013567ffffffffffffffff811115612a5757600080fd5b612a6387828801612709565b91505092959194509250565b600060208284031215612a8157600080fd5b6000612a8f84828501612772565b91505092915050565b600060208284031215612aaa57600080fd5b6000612ab884828501612787565b91505092915050565b600060208284031215612ad357600080fd5b600082013567ffffffffffffffff811115612aed57600080fd5b612af9848285016127c6565b91505092915050565b60008060408385031215612b1557600080fd5b600083013567ffffffffffffffff811115612b2f57600080fd5b612b3b858286016127c6565b925050602083013567ffffffffffffffff811115612b5857600080fd5b612b64858286016127c6565b9150509250929050565b600060208284031215612b8057600080fd5b6000612b8e848285016127f0565b91505092915050565b60008060408385031215612baa57600080fd5b6000612bb8858286016127f0565b925050602083013567ffffffffffffffff811115612bd557600080fd5b612be1858286016127c6565b9150509250929050565b612bf4816137e6565b82525050565b612c03816137f8565b82525050565b6000612c14826136f3565b612c1e8185613709565b9350612c2e818560208601613869565b612c3781613a04565b840191505092915050565b6000612c4d826136fe565b612c57818561371a565b9350612c67818560208601613869565b612c7081613a04565b840191505092915050565b6000612c8860038361371a565b91507f34303300000000000000000000000000000000000000000000000000000000006000830152602082019050919050565b6000612cc8600a8361371a565b91507f6c656e676874203c2030000000000000000000000000000000000000000000006000830152602082019050919050565b6000612d0860328361371a565b91507f4552433732313a207472616e7366657220746f206e6f6e20455243373231526560008301527f63656976657220696d706c656d656e74657200000000000000000000000000006020830152604082019050919050565b6000612d6e60268361371a565b91507f4f776e61626c653a206e6577206f776e657220697320746865207a65726f206160008301527f64647265737300000000000000000000000000000000000000000000000000006020830152604082019050919050565b6000612dd4601c8361371a565b91507f4552433732313a20746f6b656e20616c7265616479206d696e746564000000006000830152602082019050919050565b6000612e1460248361371a565b91507f4552433732313a207472616e7366657220746f20746865207a65726f2061646460008301527f72657373000000000000000000000000000000000000000000000000000000006020830152604082019050919050565b6000612e7a60198361371a565b91507f4552433732313a20617070726f766520746f2063616c6c6572000000000000006000830152602082019050919050565b6000612eba602c8361371a565b91507f4552433732313a206f70657261746f7220717565727920666f72206e6f6e657860008301527f697374656e7420746f6b656e00000000000000000000000000000000000000006020830152604082019050919050565b6000612f2060388361371a565b91507f4552433732313a20617070726f76652063616c6c6572206973206e6f74206f7760008301527f6e6572206e6f7220617070726f76656420666f7220616c6c00000000000000006020830152604082019050919050565b6000612f86602a8361371a565b91507f4552433732313a2062616c616e636520717565727920666f7220746865207a6560008301527f726f2061646472657373000000000000000000000000000000000000000000006020830152604082019050919050565b6000612fec60208361371a565b91507f4552433732313a206d696e7420746f20746865207a65726f20616464726573736000830152602082019050919050565b600061302c602c8361371a565b91507f4552433732313a20617070726f76656420717565727920666f72206e6f6e657860008301527f697374656e7420746f6b656e00000000000000000000000000000000000000006020830152604082019050919050565b600061309260208361371a565b91507f4f776e61626c653a2063616c6c6572206973206e6f7420746865206f776e65726000830152602082019050919050565b60006130d260298361371a565b91507f4552433732313a207472616e73666572206f6620746f6b656e2074686174206960008301527f73206e6f74206f776e00000000000000000000000000000000000000000000006020830152604082019050919050565b600061313860218361371a565b91507f4552433732313a20617070726f76616c20746f2063757272656e74206f776e6560008301527f72000000000000000000000000000000000000000000000000000000000000006020830152604082019050919050565b600061319e60318361371a565b91507f4552433732313a207472616e736665722063616c6c6572206973206e6f74206f60008301527f776e6572206e6f7220617070726f7665640000000000000000000000000000006020830152604082019050919050565b6000613204600a8361371a565b91507f4e6f74204d696e746572000000000000000000000000000000000000000000006000830152602082019050919050565b600061324460098361371a565b91507f4552524f522034303300000000000000000000000000000000000000000000006000830152602082019050919050565b61328081613850565b82525050565b600060208201905061329b6000830184612beb565b92915050565b60006080820190506132b66000830187612beb565b6132c36020830186612beb565b6132d06040830185613277565b81810360608301526132e28184612c09565b905095945050505050565b60006040820190506133026000830185612beb565b61330f6020830184612bfa565b9392505050565b600060208201905061332b6000830184612bfa565b92915050565b6000602082019050818103600083015261334b8184612c42565b905092915050565b6000602082019050818103600083015261336c81612c7b565b9050919050565b6000602082019050818103600083015261338c81612cbb565b9050919050565b600060208201905081810360008301526133ac81612cfb565b9050919050565b600060208201905081810360008301526133cc81612d61565b9050919050565b600060208201905081810360008301526133ec81612dc7565b9050919050565b6000602082019050818103600083015261340c81612e07565b9050919050565b6000602082019050818103600083015261342c81612e6d565b9050919050565b6000602082019050818103600083015261344c81612ead565b9050919050565b6000602082019050818103600083015261346c81612f13565b9050919050565b6000602082019050818103600083015261348c81612f79565b9050919050565b600060208201905081810360008301526134ac81612fdf565b9050919050565b600060208201905081810360008301526134cc8161301f565b9050919050565b600060208201905081810360008301526134ec81613085565b9050919050565b6000602082019050818103600083015261350c816130c5565b9050919050565b6000602082019050818103600083015261352c8161312b565b9050919050565b6000602082019050818103600083015261354c81613191565b9050919050565b6000602082019050818103600083015261356c816131f7565b9050919050565b6000602082019050818103600083015261358c81613237565b9050919050565b60006020820190506135a86000830184613277565b92915050565b60006040820190506135c36000830185613277565b81810360208301526135d58184612c42565b90509392505050565b6000604051905081810181811067ffffffffffffffff82111715613605576136046139d5565b5b8060405250919050565b600067ffffffffffffffff82111561362a576136296139d5565b5b602082029050602081019050919050565b600067ffffffffffffffff821115613656576136556139d5565b5b602082029050602081019050919050565b600067ffffffffffffffff821115613682576136816139d5565b5b602082029050602081019050919050565b600067ffffffffffffffff8211156136ae576136ad6139d5565b5b601f19601f8301169050602081019050919050565b600067ffffffffffffffff8211156136de576136dd6139d5565b5b601f19601f8301169050602081019050919050565b600081519050919050565b600081519050919050565b600082825260208201905092915050565b600082825260208201905092915050565b600061373682613850565b915061374183613850565b9250827fffffffffffffffffffffffffffffffffffffffffffffffffffffffffffffffff0382111561377657613775613948565b5b828201905092915050565b600061378c82613850565b915061379783613850565b9250826137a7576137a6613977565b5b828204905092915050565b60006137bd82613850565b91506137c883613850565b9250828210156137db576137da613948565b5b828203905092915050565b60006137f182613830565b9050919050565b60008115159050919050565b60007fffffffff0000000000000000000000000000000000000000000000000000000082169050919050565b600073ffffffffffffffffffffffffffffffffffffffff82169050919050565b6000819050919050565b82818337600083830152505050565b60005b8381101561388757808201518184015260208101905061386c565b83811115613896576000848401525b50505050565b600060028204905060018216806138b457607f821691505b602082108114156138c8576138c76139a6565b5b50919050565b60006138d982613850565b91507fffffffffffffffffffffffffffffffffffffffffffffffffffffffffffffffff82141561390c5761390b613948565b5b600182019050919050565b600061392282613850565b915061392d83613850565b92508261393d5761393c613977565b5b828206905092915050565b7f4e487b7100000000000000000000000000000000000000000000000000000000600052601160045260246000fd5b7f4e487b7100000000000000000000000000000000000000000000000000000000600052601260045260246000fd5b7f4e487b7100000000000000000000000000000000000000000000000000000000600052602260045260246000fd5b7f4e487b7100000000000000000000000000000000000000000000000000000000600052604160045260246000fd5b6000601f19601f8301169050919050565b613a1e816137e6565b8114613a2957600080fd5b50565b613a35816137f8565b8114613a4057600080fd5b50565b613a4c81613804565b8114613a5757600080fd5b50565b613a6381613850565b8114613a6e57600080fd5b5056fea2646970667358221220b50acbc3afb452366ba34aa67a671b5ba76812d380ea1f0fc2d709d2aace306a64736f6c63430008000033",
  "immutableReferences": {},
  "source": "// SPDX-License-Identifier: MIT\n// OpenZeppelin Contracts v4.4.0 (token/ERC721/ERC721.sol)\n\npragma solidity ^0.8.0;\n\nimport \"./IERC721.sol\";\nimport \"./IERC721Receiver.sol\";\nimport \"./IERC721Metadata.sol\";\nimport \"./Address.sol\";\nimport \"./Context.sol\";\nimport \"./Strings.sol\";\nimport \"./ERC165.sol\";\nimport \"./Ownable.sol\";\n\n/**\n * @dev Implementation of https://eips.ethereum.org/EIPS/eip-721[ERC721] Non-Fungible Token Standard, including\n * the Metadata extension, but not including the Enumerable extension, which is available separately as\n * {ERC721Enumerable}.\n */\ncontract ERC721 is Context, ERC165, IERC721, IERC721Metadata, Ownable {\n    using Address for address;\n    using Strings for uint256;\n\n    // Token name\n    string private _name;\n\n    // Token symbol\n    string private _symbol;\n\n    // Mapping from token ID to owner address\n    mapping(uint256 => address) private _owners;\n\n    // Mapping owner address to token count\n    mapping(address => uint256) private _balances;\n\n    // Mapping from token ID to approved address\n    mapping(uint256 => address) private _tokenApprovals;\n\n    // Mapping from owner to operator approvals\n    mapping(address => mapping(address => bool)) private _operatorApprovals;\n\n\n    string public baseURI;\n    mapping(uint => string) public lockUri;\n    mapping(address => bool) public minters;\n    mapping(uint256 => bool) tokenExist;\n    event Minter(address _m,bool _o);\n    event SetURI(uint _id,string _ipfs);\n    /**\n     * @dev Initializes the contract by setting a `name` and a `symbol` to the token collection.\n     */\n    constructor(string memory name_, string memory symbol_, address minter_) {\n        _name = name_;\n        _symbol = symbol_;\n        setMinter(minter_,true);\n    }\n\n    /**\n     * @dev See {IERC165-supportsInterface}.\n     */\n    function supportsInterface(bytes4 interfaceId) public view virtual override(ERC165, IERC165) returns (bool) {\n        return\n            interfaceId == type(IERC721).interfaceId ||\n            interfaceId == type(IERC721Metadata).interfaceId ||\n            super.supportsInterface(interfaceId);\n    }\n\n    /**\n     * @dev See {IERC721-balanceOf}.\n     */\n    function balanceOf(address owner) public view virtual override returns (uint256) {\n        require(owner != address(0), \"ERC721: balance query for the zero address\");\n        return _balances[owner];\n    }\n\n    /**\n     * @dev See {IERC721-ownerOf}.\n     */\n    function ownerOf(uint256 tokenId) public view virtual override returns (address) {\n        address owner = _owners[tokenId];\n        return owner;\n    }\n\n    /**\n     * @dev See {IERC721Metadata-name}.\n     */\n    function name() public view virtual override returns (string memory) {\n        return _name;\n    }\n\n    /**\n     * @dev See {IERC721Metadata-symbol}.\n     */\n    function symbol() public view virtual override returns (string memory) {\n        return _symbol;\n    }\n    function setBase(string memory _uri) public onlyOwner{\n        baseURI = _uri;\n    }\n    function exist(uint _id) external view returns (bool) {\n        return tokenExist[_id];\n    }\n    function setMinter(address _minter,bool _open) public onlyOwner{\n        minters[_minter] = _open;\n        emit Minter(_minter,_open);\n    }\n\n    function setURI(uint _id,string memory _ipfs) public  {\n        require(ownerOf(_id) == msg.sender && bytes(lockUri[_id]).length < 1,\"403\");\n        lockUri[_id] = _ipfs;\n        emit SetURI(_id,_ipfs);\n    }\n    function strConcat(string memory _a, string memory _b) public pure returns (string memory){\n        bytes memory _ba = bytes(_a);\n        bytes memory _bb = bytes(_b);\n        string memory ret = new string(_ba.length + _bb.length);\n        bytes memory bret = bytes(ret);\n        uint k = 0;\n        uint i;\n        for (i = 0; i < _ba.length; i++)bret[k++] = _ba[i];\n        for (i = 0; i < _bb.length; i++) bret[k++] = _bb[i];\n        return string(ret);\n    }\n    function tokenURI(uint256 tokenId) public view virtual override returns (string memory) {\n        \n        if(bytes(lockUri[tokenId]).length > 0){\n            return lockUri[tokenId];\n        }else{\n            return strConcat(baseURI,Strings.toString(tokenId));\n        }\n    }\n\n    /**\n     * @dev Base URI for computing {tokenURI}. If set, the resulting URI for each\n     * token will be the concatenation of the `baseURI` and the `tokenId`. Empty\n     * by default, can be overriden in child contracts.\n     */\n    function _baseURI() internal view virtual returns (string memory) {\n        return \"\";\n    }\n\n    /**\n     * @dev See {IERC721-approve}.\n     */\n    function approve(address to, uint256 tokenId) public virtual override {\n        address owner = ERC721.ownerOf(tokenId);\n        require(to != owner, \"ERC721: approval to current owner\");\n\n        require(\n            _msgSender() == owner || isApprovedForAll(owner, _msgSender()),\n            \"ERC721: approve caller is not owner nor approved for all\"\n        );\n\n        _approve(to, tokenId);\n    }\n\n    /**\n     * @dev See {IERC721-getApproved}.\n     */\n    function getApproved(uint256 tokenId) public view virtual override returns (address) {\n        require(_exists(tokenId), \"ERC721: approved query for nonexistent token\");\n\n        return _tokenApprovals[tokenId];\n    }\n\n    /**\n     * @dev See {IERC721-setApprovalForAll}.\n     */\n    function setApprovalForAll(address operator, bool approved) public virtual override {\n        _setApprovalForAll(_msgSender(), operator, approved);\n    }\n\n    /**\n     * @dev See {IERC721-isApprovedForAll}.\n     */\n    function isApprovedForAll(address owner, address operator) public view virtual override returns (bool) {\n        return _operatorApprovals[owner][operator];\n    }\n\n    /**\n     * @dev See {IERC721-transferFrom}.\n     */\n    function transferFrom(\n        address from,\n        address to,\n        uint256 tokenId\n    ) public virtual override {\n        //solhint-disable-next-line max-line-length\n        require(_isApprovedOrOwner(_msgSender(), tokenId), \"ERC721: transfer caller is not owner nor approved\");\n\n        _transfer(from, to, tokenId);\n    }\n\n    /**\n     * @dev See {IERC721-safeTransferFrom}.\n     */\n    function safeTransferFrom(\n        address from,\n        address to,\n        uint256 tokenId\n    ) public virtual override {\n        safeTransferFrom(from, to, tokenId, \"\");\n    }\n\n    /**\n     * @dev See {IERC721-safeTransferFrom}.\n     */\n    function safeTransferFrom(\n        address from,\n        address to,\n        uint256 tokenId,\n        bytes memory _data\n    ) public virtual override {\n        require(_isApprovedOrOwner(_msgSender(), tokenId), \"ERC721: transfer caller is not owner nor approved\");\n        _safeTransfer(from, to, tokenId, _data);\n    }\n\n    /**\n     * @dev Safely transfers `tokenId` token from `from` to `to`, checking first that contract recipients\n     * are aware of the ERC721 protocol to prevent tokens from being forever locked.\n     *\n     * `_data` is additional data, it has no specified format and it is sent in call to `to`.\n     *\n     * This internal function is equivalent to {safeTransferFrom}, and can be used to e.g.\n     * implement alternative mechanisms to perform token transfer, such as signature-based.\n     *\n     * Requirements:\n     *\n     * - `from` cannot be the zero address.\n     * - `to` cannot be the zero address.\n     * - `tokenId` token must exist and be owned by `from`.\n     * - If `to` refers to a smart contract, it must implement {IERC721Receiver-onERC721Received}, which is called upon a safe transfer.\n     *\n     * Emits a {Transfer} event.\n     */\n    function _safeTransfer(\n        address from,\n        address to,\n        uint256 tokenId,\n        bytes memory _data\n    ) internal virtual {\n        _transfer(from, to, tokenId);\n        require(_checkOnERC721Received(from, to, tokenId, _data), \"ERC721: transfer to non ERC721Receiver implementer\");\n    }\n\n    /**\n     * @dev Returns whether `tokenId` exists.\n     *\n     * Tokens can be managed by their owner or approved accounts via {approve} or {setApprovalForAll}.\n     *\n     * Tokens start existing when they are minted (`_mint`),\n     * and stop existing when they are burned (`_burn`).\n     */\n    function _exists(uint256 tokenId) internal view virtual returns (bool) {\n        return _owners[tokenId] != address(0);\n    }\n\n    /**\n     * @dev Returns whether `spender` is allowed to manage `tokenId`.\n     *\n     * Requirements:\n     *\n     * - `tokenId` must exist.\n     */\n    function _isApprovedOrOwner(address spender, uint256 tokenId) internal view virtual returns (bool) {\n        require(_exists(tokenId), \"ERC721: operator query for nonexistent token\");\n        address owner = ERC721.ownerOf(tokenId);\n        return (spender == owner || getApproved(tokenId) == spender || isApprovedForAll(owner, spender));\n    }\n\n\n\n\n    /**\n     * @dev Mints `tokenId` and transfers it to `to`.\n     *\n     * WARNING: Usage of this method is discouraged, use {_safeMint} whenever possible\n     *\n     * Requirements:\n     *\n     * - `tokenId` must not exist.\n     * - `to` cannot be the zero address.\n     *\n     * Emits a {Transfer} event.\n     */\n\n    function mint(\n        address from,\n        address to,\n        uint _tokenID,\n        bytes memory data\n    ) public virtual returns (uint) {\n        require(minters[msg.sender],'ERROR 403');\n        return _mint(from,to,_tokenID , data);\n    }\n\n    function BatchMint(\n        address[] memory from,\n        address[] memory to,\n        uint[] memory _tokenID,\n        bytes[] memory data\n    ) public virtual {\n        require(minters[msg.sender],'Not Minter');\n        require(from.length == to.length);\n        require(to.length == _tokenID.length);\n        for(uint i = 0; i < from.length; i++){\n            _mint(from[i],to[i],_tokenID[i], data[i]);\n        }\n    }\n\n\n    function _mint(address from,address to, uint256 tokenId,bytes memory data) internal virtual  returns (uint){\n        require(to != address(0), \"ERC721: mint to the zero address\");\n        require(!_exists(tokenId), \"ERC721: token already minted\");\n        require(data.length > 0, \"lenght < 0\");\n        _beforeTokenTransfer(from, to, tokenId);\n\n        _balances[to] += 1;\n        _owners[tokenId] = to;\n        tokenExist[tokenId] = true;\n        emit Transfer(from, to, tokenId);\n        return tokenId;\n    }\n\n    /**\n     * @dev Destroys `tokenId`.\n     * The approval is cleared when the token is burned.\n     *\n     * Requirements:\n     *\n     * - `tokenId` must exist.\n     *\n     * Emits a {Transfer} event.\n     */\n    function _burn(uint256 tokenId) internal virtual {\n        address owner = ERC721.ownerOf(tokenId);\n\n        _beforeTokenTransfer(owner, address(0), tokenId);\n\n        // Clear approvals\n        _approve(address(0), tokenId);\n\n        _balances[owner] -= 1;\n        delete _owners[tokenId];\n\n        emit Transfer(owner, address(0), tokenId);\n    }\n\n    /**\n     * @dev Transfers `tokenId` from `from` to `to`.\n     *  As opposed to {transferFrom}, this imposes no restrictions on msg.sender.\n     *\n     * Requirements:\n     *\n     * - `to` cannot be the zero address.\n     * - `tokenId` token must be owned by `from`.\n     *\n     * Emits a {Transfer} event.\n     */\n    function _transfer(\n        address from,\n        address to,\n        uint256 tokenId\n    ) internal virtual {\n        require(ERC721.ownerOf(tokenId) == from, \"ERC721: transfer of token that is not own\");\n        require(to != address(0), \"ERC721: transfer to the zero address\");\n\n        _beforeTokenTransfer(from, to, tokenId);\n\n        // Clear approvals from the previous owner\n        _approve(address(0), tokenId);\n\n        _balances[from] -= 1;\n        _balances[to] += 1;\n        _owners[tokenId] = to;\n\n        emit Transfer(from, to, tokenId);\n    }\n\n    /**\n     * @dev Approve `to` to operate on `tokenId`\n     *\n     * Emits a {Approval} event.\n     */\n    function _approve(address to, uint256 tokenId) internal virtual {\n        _tokenApprovals[tokenId] = to;\n        emit Approval(ERC721.ownerOf(tokenId), to, tokenId);\n    }\n\n    /**\n     * @dev Approve `operator` to operate on all of `owner` tokens\n     *\n     * Emits a {ApprovalForAll} event.\n     */\n    function _setApprovalForAll(\n        address owner,\n        address operator,\n        bool approved\n    ) internal virtual {\n        require(owner != operator, \"ERC721: approve to caller\");\n        _operatorApprovals[owner][operator] = approved;\n        emit ApprovalForAll(owner, operator, approved);\n    }\n\n    /**\n     * @dev Internal function to invoke {IERC721Receiver-onERC721Received} on a target address.\n     * The call is not executed if the target address is not a contract.\n     *\n     * @param from address representing the previous owner of the given token ID\n     * @param to target address that will receive the tokens\n     * @param tokenId uint256 ID of the token to be transferred\n     * @param _data bytes optional data to send along with the call\n     * @return bool whether the call correctly returned the expected magic value\n     */\n    function _checkOnERC721Received(\n        address from,\n        address to,\n        uint256 tokenId,\n        bytes memory _data\n    ) private returns (bool) {\n        if (to.isContract()) {\n            try IERC721Receiver(to).onERC721Received(_msgSender(), from, tokenId, _data) returns (bytes4 retval) {\n                return retval == IERC721Receiver.onERC721Received.selector;\n            } catch (bytes memory reason) {\n                if (reason.length == 0) {\n                    revert(\"ERC721: transfer to non ERC721Receiver implementer\");\n                } else {\n                    assembly {\n                        revert(add(32, reason), mload(reason))\n                    }\n                }\n            }\n        } else {\n            return true;\n        }\n    }\n\n    /**\n     * @dev Hook that is called before any token transfer. This includes minting\n     * and burning.\n     *\n     * Calling conditions:\n     *\n     * - When `from` and `to` are both non-zero, ``from``'s `tokenId` will be\n     * transferred to `to`.\n     * - When `from` is zero, `tokenId` will be minted for `to`.\n     * - When `to` is zero, ``from``'s `tokenId` will be burned.\n     * - `from` and `to` are never both zero.\n     *\n     * To learn more about hooks, head to xref:ROOT:extending-contracts.adoc#using-hooks[Using Hooks].\n     */\n    function _beforeTokenTransfer(\n        address from,\n        address to,\n        uint256 tokenId\n    ) internal virtual {}\n}\n",
  "sourcePath": "/Users/ycyykj/Huangcaijin/Contract/erc721/contracts/ERC721.sol",
  "compiler": {
    "name": "solc",
    "version": "0.8.0+commit.c7dfd78e.Emscripten.clang"
  },
  "schemaVersion": "3.4.1",
  "updatedAt": "2022-02-16T10:03:14.322Z",
  "devdoc": {
    "details": "Implementation of https://eips.ethereum.org/EIPS/eip-721[ERC721] Non-Fungible Token Standard, including the Metadata extension, but not including the Enumerable extension, which is available separately as {ERC721Enumerable}.",
    "kind": "dev",
    "methods": {
      "approve(address,uint256)": {
        "details": "See {IERC721-approve}."
      },
      "balanceOf(address)": {
        "details": "See {IERC721-balanceOf}."
      },
      "constructor": {
        "details": "Initializes the contract by setting a `name` and a `symbol` to the token collection."
      },
      "getApproved(uint256)": {
        "details": "See {IERC721-getApproved}."
      },
      "isApprovedForAll(address,address)": {
        "details": "See {IERC721-isApprovedForAll}."
      },
      "mint(address,address,uint256,bytes)": {
        "details": "Mints `tokenId` and transfers it to `to`. WARNING: Usage of this method is discouraged, use {_safeMint} whenever possible Requirements: - `tokenId` must not exist. - `to` cannot be the zero address. Emits a {Transfer} event."
      },
      "name()": {
        "details": "See {IERC721Metadata-name}."
      },
      "owner()": {
        "details": "Returns the address of the current owner."
      },
      "ownerOf(uint256)": {
        "details": "See {IERC721-ownerOf}."
      },
      "renounceOwnership()": {
        "details": "Leaves the contract without owner. It will not be possible to call `onlyOwner` functions anymore. Can only be called by the current owner. NOTE: Renouncing ownership will leave the contract without an owner, thereby removing any functionality that is only available to the owner."
      },
      "safeTransferFrom(address,address,uint256)": {
        "details": "See {IERC721-safeTransferFrom}."
      },
      "safeTransferFrom(address,address,uint256,bytes)": {
        "details": "See {IERC721-safeTransferFrom}."
      },
      "setApprovalForAll(address,bool)": {
        "details": "See {IERC721-setApprovalForAll}."
      },
      "supportsInterface(bytes4)": {
        "details": "See {IERC165-supportsInterface}."
      },
      "symbol()": {
        "details": "See {IERC721Metadata-symbol}."
      },
      "tokenURI(uint256)": {
        "details": "Returns the Uniform Resource Identifier (URI) for `tokenId` token."
      },
      "transferFrom(address,address,uint256)": {
        "details": "See {IERC721-transferFrom}."
      },
      "transferOwnership(address)": {
        "details": "Transfers ownership of the contract to a new account (`newOwner`). Can only be called by the current owner."
      }
    },
    "version": 1
  },
  "userdoc": {
    "kind": "user",
    "methods": {},
    "version": 1
  }
}